{
  "_format": "hh-sol-artifact-1",
  "contractName": "HelloWorld",
  "sourceName": "contracts/HelloWorld.sol",
  "abi": [
    {
      "anonymous": false,
      "inputs": [
        {
          "indexed": true,
          "internalType": "address",
          "name": "previousOwner",
          "type": "address"
        },
        {
          "indexed": true,
          "internalType": "address",
          "name": "newOwner",
          "type": "address"
        }
      ],
      "name": "OwnershipTransferred",
      "type": "event"
    },
    {
      "inputs": [
        {
          "internalType": "string",
          "name": "name",
          "type": "string"
        }
      ],
      "name": "GreetOwner",
      "outputs": [
        {
          "internalType": "string",
          "name": "",
          "type": "string"
        }
      ],
      "stateMutability": "view",
      "type": "function"
    },
    {
      "inputs": [],
      "name": "Hello",
      "outputs": [
        {
          "internalType": "string",
          "name": "",
          "type": "string"
        }
      ],
      "stateMutability": "pure",
      "type": "function"
    },
    {
      "inputs": [],
      "name": "owner",
      "outputs": [
        {
          "internalType": "address",
          "name": "",
          "type": "address"
        }
      ],
      "stateMutability": "view",
      "type": "function"
    },
    {
      "inputs": [],
      "name": "renounceOwnership",
      "outputs": [],
      "stateMutability": "nonpayable",
      "type": "function"
    },
    {
      "inputs": [
        {
          "internalType": "address",
          "name": "newOwner",
          "type": "address"
        }
      ],
      "name": "transferOwnership",
      "outputs": [],
      "stateMutability": "nonpayable",
      "type": "function"
    }
  ],
  "bytecode": "0x608060405234801561001057600080fd5b5061002d61002261003260201b60201c565b61003a60201b60201c565b6100fe565b600033905090565b60008060009054906101000a900473ffffffffffffffffffffffffffffffffffffffff169050816000806101000a81548173ffffffffffffffffffffffffffffffffffffffff021916908373ffffffffffffffffffffffffffffffffffffffff1602179055508173ffffffffffffffffffffffffffffffffffffffff168173ffffffffffffffffffffffffffffffffffffffff167f8be0079c531659141344cd1fd0a4f28419497f9722a3daafe3b4186f6b6457e060405160405180910390a35050565b61089e8061010d6000396000f3fe608060405234801561001057600080fd5b50600436106100575760003560e01c8063715018a61461005c5780638cd02529146100665780638da5cb5b14610096578063bcdfe0d5146100b4578063f2fde38b146100d2575b600080fd5b6100646100ee565b005b610080600480360381019061007b9190610419565b610102565b60405161008d91906105af565b60405180910390f35b61009e610133565b6040516100ab9190610594565b60405180910390f35b6100bc61015c565b6040516100c991906105af565b60405180910390f35b6100ec60048036038101906100e791906103ec565b610199565b005b6100f661021d565b610100600061029b565b565b606061010c61021d565b8160405160200161011d9190610567565b6040516020818303038152906040529050919050565b60008060009054906101000a900473ffffffffffffffffffffffffffffffffffffffff16905090565b60606040518060400160405280600b81526020017f48656c6c6f20576f726c64000000000000000000000000000000000000000000815250905090565b6101a161021d565b600073ffffffffffffffffffffffffffffffffffffffff168173ffffffffffffffffffffffffffffffffffffffff161415610211576040517f08c379a0000000000000000000000000000000000000000000000000000000008152600401610208906105d1565b60405180910390fd5b61021a8161029b565b50565b61022561035f565b73ffffffffffffffffffffffffffffffffffffffff16610243610133565b73ffffffffffffffffffffffffffffffffffffffff1614610299576040517f08c379a0000000000000000000000000000000000000000000000000000000008152600401610290906105f1565b60405180910390fd5b565b60008060009054906101000a900473ffffffffffffffffffffffffffffffffffffffff169050816000806101000a81548173ffffffffffffffffffffffffffffffffffffffff021916908373ffffffffffffffffffffffffffffffffffffffff1602179055508173ffffffffffffffffffffffffffffffffffffffff168173ffffffffffffffffffffffffffffffffffffffff167f8be0079c531659141344cd1fd0a4f28419497f9722a3daafe3b4186f6b6457e060405160405180910390a35050565b600033905090565b600061037a61037584610636565b610611565b90508281526020810184848401111561039657610395610767565b5b6103a18482856106c0565b509392505050565b6000813590506103b881610851565b92915050565b600082601f8301126103d3576103d2610762565b5b81356103e3848260208601610367565b91505092915050565b60006020828403121561040257610401610771565b5b6000610410848285016103a9565b91505092915050565b60006020828403121561042f5761042e610771565b5b600082013567ffffffffffffffff81111561044d5761044c61076c565b5b610459848285016103be565b91505092915050565b61046b8161068e565b82525050565b600061047c82610667565b6104868185610672565b93506104968185602086016106cf565b61049f81610776565b840191505092915050565b60006104b582610667565b6104bf8185610683565b93506104cf8185602086016106cf565b80840191505092915050565b60006104e8602683610672565b91506104f382610787565b604082019050919050565b600061050b600183610683565b9150610516826107d6565b600182019050919050565b600061052e600683610683565b9150610539826107ff565b600682019050919050565b6000610551602083610672565b915061055c82610828565b602082019050919050565b600061057282610521565b915061057e82846104aa565b9150610589826104fe565b915081905092915050565b60006020820190506105a96000830184610462565b92915050565b600060208201905081810360008301526105c98184610471565b905092915050565b600060208201905081810360008301526105ea816104db565b9050919050565b6000602082019050818103600083015261060a81610544565b9050919050565b600061061b61062c565b90506106278282610702565b919050565b6000604051905090565b600067ffffffffffffffff82111561065157610650610733565b5b61065a82610776565b9050602081019050919050565b600081519050919050565b600082825260208201905092915050565b600081905092915050565b6000610699826106a0565b9050919050565b600073ffffffffffffffffffffffffffffffffffffffff82169050919050565b82818337600083830152505050565b60005b838110156106ed5780820151818401526020810190506106d2565b838111156106fc576000848401525b50505050565b61070b82610776565b810181811067ffffffffffffffff8211171561072a57610729610733565b5b80604052505050565b7f4e487b7100000000000000000000000000000000000000000000000000000000600052604160045260246000fd5b600080fd5b600080fd5b600080fd5b600080fd5b6000601f19601f8301169050919050565b7f4f776e61626c653a206e6577206f776e657220697320746865207a65726f206160008201527f6464726573730000000000000000000000000000000000000000000000000000602082015250565b7f2100000000000000000000000000000000000000000000000000000000000000600082015250565b7f48656c6c6f200000000000000000000000000000000000000000000000000000600082015250565b7f4f776e61626c653a2063616c6c6572206973206e6f7420746865206f776e6572600082015250565b61085a8161068e565b811461086557600080fd5b5056fea26469706673582212207964ea48cd74bad435c6ed7ec385c1f0b9ab6389efea9725407fa8e1884a5ea564736f6c63430008070033",
  "linkReferences": {},
  "deployedLinkReferences": {}
}