{
  "_format": "hh-sol-artifact-1",
  "contractName": "HelloWorld",
  "sourceName": "contracts/HelloWorld.sol",
  "abi": [
    {
      "anonymous": false,
      "inputs": [
        {
          "indexed": true,
          "internalType": "address",
          "name": "previousOwner",
          "type": "address"
        },
        {
          "indexed": true,
          "internalType": "address",
          "name": "newOwner",
          "type": "address"
        }
      ],
      "name": "OwnershipTransferred",
      "type": "event"
    },
    {
      "inputs": [],
      "name": "greetOwner",
      "outputs": [
        {
          "internalType": "string",
          "name": "",
          "type": "string"
        }
      ],
      "stateMutability": "view",
      "type": "function"
    },
    {
      "inputs": [],
      "name": "hello",
      "outputs": [
        {
          "internalType": "string",
          "name": "",
          "type": "string"
        }
      ],
      "stateMutability": "pure",
      "type": "function"
    },
    {
      "inputs": [],
      "name": "owner",
      "outputs": [
        {
          "internalType": "address",
          "name": "",
          "type": "address"
        }
      ],
      "stateMutability": "view",
      "type": "function"
    },
    {
      "inputs": [],
      "name": "ownerName",
      "outputs": [
        {
          "internalType": "string",
          "name": "",
          "type": "string"
        }
      ],
      "stateMutability": "view",
      "type": "function"
    },
    {
      "inputs": [],
      "name": "renounceOwnership",
      "outputs": [],
      "stateMutability": "nonpayable",
      "type": "function"
    },
    {
      "inputs": [
        {
          "internalType": "address",
          "name": "newOwner",
          "type": "address"
        }
      ],
      "name": "transferOwnership",
      "outputs": [],
      "stateMutability": "nonpayable",
      "type": "function"
    },
    {
      "inputs": [
        {
          "internalType": "string",
          "name": "newName",
          "type": "string"
        }
      ],
      "name": "updateOwnerName",
      "outputs": [],
      "stateMutability": "nonpayable",
      "type": "function"
    }
  ],
  "bytecode": "0x608060405234801561001057600080fd5b5061002d61002261003260201b60201c565b61003a60201b60201c565b6100fe565b600033905090565b60008060009054906101000a900473ffffffffffffffffffffffffffffffffffffffff169050816000806101000a81548173ffffffffffffffffffffffffffffffffffffffff021916908373ffffffffffffffffffffffffffffffffffffffff1602179055508173ffffffffffffffffffffffffffffffffffffffff168173ffffffffffffffffffffffffffffffffffffffff167f8be0079c531659141344cd1fd0a4f28419497f9722a3daafe3b4186f6b6457e060405160405180910390a35050565b610b028061010d6000396000f3fe608060405234801561001057600080fd5b506004361061007d5760003560e01c8063897640ec1161005b578063897640ec146100c85780638da5cb5b146100e6578063bbc8dbf014610104578063f2fde38b146101205761007d565b806319ff1d211461008257806365ac2320146100a0578063715018a6146100be575b600080fd5b61008a61013c565b604051610097919061079d565b60405180910390f35b6100a8610179565b6040516100b5919061079d565b60405180910390f35b6100c6610207565b005b6100d061021b565b6040516100dd919061079d565b60405180910390f35b6100ee61024b565b6040516100fb9190610782565b60405180910390f35b61011e600480360381019061011991906105b9565b610274565b005b61013a6004803603810190610135919061058c565b610296565b005b60606040518060400160405280600b81526020017f48656c6c6f20576f726c64000000000000000000000000000000000000000000815250905090565b6001805461018690610905565b80601f01602080910402602001604051908101604052809291908181526020018280546101b290610905565b80156101ff5780601f106101d4576101008083540402835291602001916101ff565b820191906000526020600020905b8154815290600101906020018083116101e257829003601f168201915b505050505081565b61020f61031a565b6102196000610398565b565b606061022561031a565b60016040516020016102379190610755565b604051602081830303815290604052905090565b60008060009054906101000a900473ffffffffffffffffffffffffffffffffffffffff16905090565b61027c61031a565b8060019080519060200190610292929190610464565b5050565b61029e61031a565b600073ffffffffffffffffffffffffffffffffffffffff168173ffffffffffffffffffffffffffffffffffffffff16141561030e576040517f08c379a0000000000000000000000000000000000000000000000000000000008152600401610305906107bf565b60405180910390fd5b61031781610398565b50565b61032261045c565b73ffffffffffffffffffffffffffffffffffffffff1661034061024b565b73ffffffffffffffffffffffffffffffffffffffff1614610396576040517f08c379a000000000000000000000000000000000000000000000000000000000815260040161038d906107df565b60405180910390fd5b565b60008060009054906101000a900473ffffffffffffffffffffffffffffffffffffffff169050816000806101000a81548173ffffffffffffffffffffffffffffffffffffffff021916908373ffffffffffffffffffffffffffffffffffffffff1602179055508173ffffffffffffffffffffffffffffffffffffffff168173ffffffffffffffffffffffffffffffffffffffff167f8be0079c531659141344cd1fd0a4f28419497f9722a3daafe3b4186f6b6457e060405160405180910390a35050565b600033905090565b82805461047090610905565b90600052602060002090601f01602090048101928261049257600085556104d9565b82601f106104ab57805160ff19168380011785556104d9565b828001600101855582156104d9579182015b828111156104d85782518255916020019190600101906104bd565b5b5090506104e691906104ea565b5090565b5b808211156105035760008160009055506001016104eb565b5090565b600061051a61051584610824565b6107ff565b905082815260208101848484011115610536576105356109cb565b5b6105418482856108c3565b509392505050565b60008135905061055881610ab5565b92915050565b600082601f830112610573576105726109c6565b5b8135610583848260208601610507565b91505092915050565b6000602082840312156105a2576105a16109d5565b5b60006105b084828501610549565b91505092915050565b6000602082840312156105cf576105ce6109d5565b5b600082013567ffffffffffffffff8111156105ed576105ec6109d0565b5b6105f98482850161055e565b91505092915050565b61060b81610891565b82525050565b600061061c8261086a565b6106268185610875565b93506106368185602086016108d2565b61063f816109da565b840191505092915050565b6000815461065781610905565b6106618186610886565b9450600182166000811461067c576001811461068d576106c0565b60ff198316865281860193506106c0565b61069685610855565b60005b838110156106b857815481890152600182019150602081019050610699565b838801955050505b50505092915050565b60006106d6602683610875565b91506106e1826109eb565b604082019050919050565b60006106f9600183610886565b915061070482610a3a565b600182019050919050565b600061071c600683610886565b915061072782610a63565b600682019050919050565b600061073f602083610875565b915061074a82610a8c565b602082019050919050565b60006107608261070f565b915061076c828461064a565b9150610777826106ec565b915081905092915050565b60006020820190506107976000830184610602565b92915050565b600060208201905081810360008301526107b78184610611565b905092915050565b600060208201905081810360008301526107d8816106c9565b9050919050565b600060208201905081810360008301526107f881610732565b9050919050565b600061080961081a565b90506108158282610937565b919050565b6000604051905090565b600067ffffffffffffffff82111561083f5761083e610997565b5b610848826109da565b9050602081019050919050565b60008190508160005260206000209050919050565b600081519050919050565b600082825260208201905092915050565b600081905092915050565b600061089c826108a3565b9050919050565b600073ffffffffffffffffffffffffffffffffffffffff82169050919050565b82818337600083830152505050565b60005b838110156108f05780820151818401526020810190506108d5565b838111156108ff576000848401525b50505050565b6000600282049050600182168061091d57607f821691505b6020821081141561093157610930610968565b5b50919050565b610940826109da565b810181811067ffffffffffffffff8211171561095f5761095e610997565b5b80604052505050565b7f4e487b7100000000000000000000000000000000000000000000000000000000600052602260045260246000fd5b7f4e487b7100000000000000000000000000000000000000000000000000000000600052604160045260246000fd5b600080fd5b600080fd5b600080fd5b600080fd5b6000601f19601f8301169050919050565b7f4f776e61626c653a206e6577206f776e657220697320746865207a65726f206160008201527f6464726573730000000000000000000000000000000000000000000000000000602082015250565b7f2100000000000000000000000000000000000000000000000000000000000000600082015250565b7f48656c6c6f200000000000000000000000000000000000000000000000000000600082015250565b7f4f776e61626c653a2063616c6c6572206973206e6f7420746865206f776e6572600082015250565b610abe81610891565b8114610ac957600080fd5b5056fea26469706673582212204b9629eed18e35f33ddfb1b729ec59ed3314a037919735ae1af365e9d2207fee64736f6c63430008070033",
  "linkReferences": {},
  "deployedLinkReferences": {}
}